{
  "contractName": "Governable",
  "abi": [
    {
      "anonymous": false,
      "inputs": [
        {
          "indexed": true,
          "internalType": "address",
          "name": "previousGovernor",
          "type": "address"
        },
        {
          "indexed": true,
          "internalType": "address",
          "name": "newGovernor",
          "type": "address"
        }
      ],
      "name": "GovernorshipTransferred",
      "type": "event"
    },
    {
      "inputs": [],
      "name": "governor",
      "outputs": [
        {
          "internalType": "address",
          "name": "",
          "type": "address"
        }
      ],
      "stateMutability": "view",
      "type": "function"
    },
    {
      "inputs": [
        {
          "internalType": "address",
          "name": "governor_",
          "type": "address"
        }
      ],
      "name": "initialize",
      "outputs": [],
      "stateMutability": "nonpayable",
      "type": "function"
    },
    {
      "inputs": [],
      "name": "renounceGovernorship",
      "outputs": [],
      "stateMutability": "nonpayable",
      "type": "function"
    },
    {
      "inputs": [
        {
          "internalType": "address",
          "name": "newGovernor",
          "type": "address"
        }
      ],
      "name": "transferGovernorship",
      "outputs": [],
      "stateMutability": "nonpayable",
      "type": "function"
    }
  ],
  "bytecode": "0x608060405234801561001057600080fd5b50610630806100206000396000f3fe608060405234801561001057600080fd5b5060043610610069576000357c0100000000000000000000000000000000000000000000000000000000900480630c340a241461006e57806381c0c263146100b8578063b6aa515b146100c2578063c4d66de814610106575b600080fd5b61007661014a565b604051808273ffffffffffffffffffffffffffffffffffffffff1673ffffffffffffffffffffffffffffffffffffffff16815260200191505060405180910390f35b6100c0610170565b005b610104600480360360208110156100d857600080fd5b81019080803573ffffffffffffffffffffffffffffffffffffffff16906020019092919050505061028a565b005b6101486004803603602081101561011c57600080fd5b81019080803573ffffffffffffffffffffffffffffffffffffffff1690602001909291905050506102f0565b005b600060029054906101000a900473ffffffffffffffffffffffffffffffffffffffff1681565b600060029054906101000a900473ffffffffffffffffffffffffffffffffffffffff1673ffffffffffffffffffffffffffffffffffffffff163373ffffffffffffffffffffffffffffffffffffffff16146101ca57600080fd5b600073ffffffffffffffffffffffffffffffffffffffff16600060029054906101000a900473ffffffffffffffffffffffffffffffffffffffff1673ffffffffffffffffffffffffffffffffffffffff167fc7c0c772add429241571afb3805861fb3cfa2af374534088b76cdb4325a87e9a60405160405180910390a360008060026101000a81548173ffffffffffffffffffffffffffffffffffffffff021916908373ffffffffffffffffffffffffffffffffffffffff160217905550565b600060029054906101000a900473ffffffffffffffffffffffffffffffffffffffff1673ffffffffffffffffffffffffffffffffffffffff163373ffffffffffffffffffffffffffffffffffffffff16146102e457600080fd5b6102ed816104ae565b50565b600060019054906101000a900460ff168061030f575061030e6105a8565b5b8061032657506000809054906101000a900460ff16155b61037b576040517f08c379a000000000000000000000000000000000000000000000000000000000815260040180806020018281038252602e8152602001806105cd602e913960400191505060405180910390fd5b60008060019054906101000a900460ff1615905080156103cb576001600060016101000a81548160ff02191690831515021790555060016000806101000a81548160ff0219169083151502179055505b81600060026101000a81548173ffffffffffffffffffffffffffffffffffffffff021916908373ffffffffffffffffffffffffffffffffffffffff160217905550600060029054906101000a900473ffffffffffffffffffffffffffffffffffffffff1673ffffffffffffffffffffffffffffffffffffffff16600073ffffffffffffffffffffffffffffffffffffffff167fc7c0c772add429241571afb3805861fb3cfa2af374534088b76cdb4325a87e9a60405160405180910390a380156104aa5760008060016101000a81548160ff0219169083151502179055505b5050565b600073ffffffffffffffffffffffffffffffffffffffff168173ffffffffffffffffffffffffffffffffffffffff1614156104e857600080fd5b8073ffffffffffffffffffffffffffffffffffffffff16600060029054906101000a900473ffffffffffffffffffffffffffffffffffffffff1673ffffffffffffffffffffffffffffffffffffffff167fc7c0c772add429241571afb3805861fb3cfa2af374534088b76cdb4325a87e9a60405160405180910390a380600060026101000a81548173ffffffffffffffffffffffffffffffffffffffff021916908373ffffffffffffffffffffffffffffffffffffffff16021790555050565b60006105b3306105b9565b15905090565b600080823b90506000811191505091905056fe496e697469616c697a61626c653a20636f6e747261637420697320616c726561647920696e697469616c697a6564a26469706673582212200f292b3a78424cf731e57ae17b7c70c3b0da48ecb66f4f3f969eae44e983e3f364736f6c63430006080033",
  "immutableReferences": {},
  "source": "// SPDX-License-Identifier: MIT\n\npragma solidity ^0.6.0;\n\nimport \"./standard/proxy/Initializable.sol\";\n\n\ncontract Governable is Initializable {\n    address public governor;\n\n    event GovernorshipTransferred(address indexed previousGovernor, address indexed newGovernor);\n\n    /**\n     * @dev Contract initializer.\n     * called once by the factory at time of deployment\n     */\n    function initialize(address governor_) virtual public initializer {\n        governor = governor_;\n        emit GovernorshipTransferred(address(0), governor);\n    }\n\n    modifier governance() {\n        require(msg.sender == governor);\n        _;\n    }\n\n    /**\n     * @dev Allows the current governor to relinquish control of the contract.\n     * @notice Renouncing to governorship will leave the contract without an governor.\n     * It will not be possible to call the functions with the `governance`\n     * modifier anymore.\n     */\n    function renounceGovernorship() public governance {\n        emit GovernorshipTransferred(governor, address(0));\n        governor = address(0);\n    }\n\n    /**\n     * @dev Allows the current governor to transfer control of the contract to a newGovernor.\n     * @param newGovernor The address to transfer governorship to.\n     */\n    function transferGovernorship(address newGovernor) public governance {\n        _transferGovernorship(newGovernor);\n    }\n\n    /**\n     * @dev Transfers control of the contract to a newGovernor.\n     * @param newGovernor The address to transfer governorship to.\n     */\n    function _transferGovernorship(address newGovernor) internal {\n        require(newGovernor != address(0));\n        emit GovernorshipTransferred(governor, newGovernor);\n        governor = newGovernor;\n    }\n}\n\n\ncontract Configurable is Governable {\n\n    mapping (bytes32 => uint) internal config;\n\n    function getConfig(bytes32 key) public view returns (uint) {\n        return config[key];\n    }\n    function getConfig(bytes32 key, uint index) public view returns (uint) {\n        return config[bytes32(uint(key) ^ index)];\n    }\n    function getConfig(bytes32 key, address addr) public view returns (uint) {\n        return config[bytes32(uint(key) ^ uint(addr))];\n    }\n\n    function _setConfig(bytes32 key, uint value) internal {\n        if(config[key] != value)\n            config[key] = value;\n    }\n    function _setConfig(bytes32 key, uint index, uint value) internal {\n        _setConfig(bytes32(uint(key) ^ index), value);\n    }\n    function _setConfig(bytes32 key, address addr, uint value) internal {\n        _setConfig(bytes32(uint(key) ^ uint(addr)), value);\n    }\n\n    function setConfig(bytes32 key, uint value) external governance {\n        _setConfig(key, value);\n    }\n    function setConfig(bytes32 key, uint index, uint value) external governance {\n        _setConfig(bytes32(uint(key) ^ index), value);\n    }\n    function setConfig(bytes32 key, address addr, uint value) public governance {\n        _setConfig(bytes32(uint(key) ^ uint(addr)), value);\n    }\n}\n",
  "sourcePath": "/Users/renge/Desktop/mengbao/pact/pact/contracts/Governable.sol",
  "compiler": {
    "name": "solc",
    "version": "0.6.8+commit.0bbfe453.Linux.g++"
  },
  "schemaVersion": "3.3.4",
  "updatedAt": "2021-04-01T15:40:31.510Z",
  "devdoc": {
    "methods": {
      "initialize(address)": {
        "details": "Contract initializer. called once by the factory at time of deployment"
      },
      "renounceGovernorship()": {
        "details": "Allows the current governor to relinquish control of the contract."
      },
      "transferGovernorship(address)": {
        "details": "Allows the current governor to transfer control of the contract to a newGovernor.",
        "params": {
          "newGovernor": "The address to transfer governorship to."
        }
      }
    }
  },
  "userdoc": {
    "methods": {
      "renounceGovernorship()": {
        "notice": "Renouncing to governorship will leave the contract without an governor. It will not be possible to call the functions with the `governance` modifier anymore."
      }
    }
  }
}