{
  "contractName": "SExactPool",
  "abi": [
    {
      "anonymous": false,
      "inputs": [
        {
          "indexed": true,
          "internalType": "address",
          "name": "farmer",
          "type": "address"
        },
        {
          "indexed": true,
          "internalType": "address",
          "name": "from",
          "type": "address"
        },
        {
          "indexed": false,
          "internalType": "uint256",
          "name": "amount",
          "type": "uint256"
        }
      ],
      "name": "Farming",
      "type": "event"
    },
    {
      "anonymous": false,
      "inputs": [
        {
          "indexed": true,
          "internalType": "address",
          "name": "previousGovernor",
          "type": "address"
        },
        {
          "indexed": true,
          "internalType": "address",
          "name": "newGovernor",
          "type": "address"
        }
      ],
      "name": "GovernorshipTransferred",
      "type": "event"
    },
    {
      "anonymous": false,
      "inputs": [
        {
          "indexed": true,
          "internalType": "address",
          "name": "farmer",
          "type": "address"
        },
        {
          "indexed": true,
          "internalType": "address",
          "name": "to",
          "type": "address"
        },
        {
          "indexed": false,
          "internalType": "uint256[]",
          "name": "amounts",
          "type": "uint256[]"
        }
      ],
      "name": "Harvest",
      "type": "event"
    },
    {
      "anonymous": false,
      "inputs": [
        {
          "indexed": true,
          "internalType": "address",
          "name": "farmer",
          "type": "address"
        },
        {
          "indexed": true,
          "internalType": "address",
          "name": "to",
          "type": "address"
        },
        {
          "indexed": false,
          "internalType": "uint256",
          "name": "amount",
          "type": "uint256"
        }
      ],
      "name": "Unfarming",
      "type": "event"
    },
    {
      "inputs": [],
      "name": "bufReward",
      "outputs": [
        {
          "internalType": "uint256",
          "name": "",
          "type": "uint256"
        }
      ],
      "stateMutability": "view",
      "type": "function"
    },
    {
      "inputs": [],
      "name": "end",
      "outputs": [
        {
          "internalType": "uint256",
          "name": "",
          "type": "uint256"
        }
      ],
      "stateMutability": "view",
      "type": "function"
    },
    {
      "inputs": [],
      "name": "farm",
      "outputs": [
        {
          "internalType": "address",
          "name": "",
          "type": "address"
        }
      ],
      "stateMutability": "view",
      "type": "function"
    },
    {
      "inputs": [
        {
          "internalType": "bytes32",
          "name": "key",
          "type": "bytes32"
        },
        {
          "internalType": "address",
          "name": "addr",
          "type": "address"
        }
      ],
      "name": "getConfig",
      "outputs": [
        {
          "internalType": "uint256",
          "name": "",
          "type": "uint256"
        }
      ],
      "stateMutability": "view",
      "type": "function"
    },
    {
      "inputs": [
        {
          "internalType": "bytes32",
          "name": "key",
          "type": "bytes32"
        }
      ],
      "name": "getConfig",
      "outputs": [
        {
          "internalType": "uint256",
          "name": "",
          "type": "uint256"
        }
      ],
      "stateMutability": "view",
      "type": "function"
    },
    {
      "inputs": [
        {
          "internalType": "bytes32",
          "name": "key",
          "type": "bytes32"
        },
        {
          "internalType": "uint256",
          "name": "index",
          "type": "uint256"
        }
      ],
      "name": "getConfig",
      "outputs": [
        {
          "internalType": "uint256",
          "name": "",
          "type": "uint256"
        }
      ],
      "stateMutability": "view",
      "type": "function"
    },
    {
      "inputs": [],
      "name": "governor",
      "outputs": [
        {
          "internalType": "address",
          "name": "",
          "type": "address"
        }
      ],
      "stateMutability": "view",
      "type": "function"
    },
    {
      "inputs": [],
      "name": "lasttime",
      "outputs": [
        {
          "internalType": "uint256",
          "name": "",
          "type": "uint256"
        }
      ],
      "stateMutability": "view",
      "type": "function"
    },
    {
      "inputs": [],
      "name": "renounceGovernorship",
      "outputs": [],
      "stateMutability": "nonpayable",
      "type": "function"
    },
    {
      "inputs": [
        {
          "internalType": "bytes32",
          "name": "key",
          "type": "bytes32"
        },
        {
          "internalType": "uint256",
          "name": "value",
          "type": "uint256"
        }
      ],
      "name": "setConfig",
      "outputs": [],
      "stateMutability": "nonpayable",
      "type": "function"
    },
    {
      "inputs": [
        {
          "internalType": "bytes32",
          "name": "key",
          "type": "bytes32"
        },
        {
          "internalType": "address",
          "name": "addr",
          "type": "address"
        },
        {
          "internalType": "uint256",
          "name": "value",
          "type": "uint256"
        }
      ],
      "name": "setConfig",
      "outputs": [],
      "stateMutability": "nonpayable",
      "type": "function"
    },
    {
      "inputs": [
        {
          "internalType": "bytes32",
          "name": "key",
          "type": "bytes32"
        },
        {
          "internalType": "uint256",
          "name": "index",
          "type": "uint256"
        },
        {
          "internalType": "uint256",
          "name": "value",
          "type": "uint256"
        }
      ],
      "name": "setConfig",
      "outputs": [],
      "stateMutability": "nonpayable",
      "type": "function"
    },
    {
      "inputs": [],
      "name": "span",
      "outputs": [
        {
          "internalType": "uint256",
          "name": "",
          "type": "uint256"
        }
      ],
      "stateMutability": "view",
      "type": "function"
    },
    {
      "inputs": [
        {
          "internalType": "address",
          "name": "",
          "type": "address"
        }
      ],
      "name": "stakingOf",
      "outputs": [
        {
          "internalType": "uint256",
          "name": "",
          "type": "uint256"
        }
      ],
      "stateMutability": "view",
      "type": "function"
    },
    {
      "inputs": [],
      "name": "sumRewardPer",
      "outputs": [
        {
          "internalType": "uint256",
          "name": "",
          "type": "uint256"
        }
      ],
      "stateMutability": "view",
      "type": "function"
    },
    {
      "inputs": [
        {
          "internalType": "address",
          "name": "",
          "type": "address"
        }
      ],
      "name": "sumRewardPerOf",
      "outputs": [
        {
          "internalType": "uint256",
          "name": "",
          "type": "uint256"
        }
      ],
      "stateMutability": "view",
      "type": "function"
    },
    {
      "inputs": [],
      "name": "totalStaking",
      "outputs": [
        {
          "internalType": "uint256",
          "name": "",
          "type": "uint256"
        }
      ],
      "stateMutability": "view",
      "type": "function"
    },
    {
      "inputs": [
        {
          "internalType": "address",
          "name": "newGovernor",
          "type": "address"
        }
      ],
      "name": "transferGovernorship",
      "outputs": [],
      "stateMutability": "nonpayable",
      "type": "function"
    },
    {
      "inputs": [],
      "name": "underlying",
      "outputs": [
        {
          "internalType": "address",
          "name": "",
          "type": "address"
        }
      ],
      "stateMutability": "view",
      "type": "function"
    },
    {
      "inputs": [
        {
          "internalType": "address",
          "name": "governor",
          "type": "address"
        },
        {
          "internalType": "address",
          "name": "_farm",
          "type": "address"
        },
        {
          "internalType": "address",
          "name": "_underlying",
          "type": "address"
        }
      ],
      "name": "initialize",
      "outputs": [],
      "stateMutability": "nonpayable",
      "type": "function"
    },
    {
      "inputs": [
        {
          "internalType": "address",
          "name": "governor_",
          "type": "address"
        }
      ],
      "name": "initialize",
      "outputs": [],
      "stateMutability": "nonpayable",
      "type": "function"
    },
    {
      "inputs": [
        {
          "internalType": "uint256",
          "name": "_span",
          "type": "uint256"
        },
        {
          "internalType": "bool",
          "name": "isLinear",
          "type": "bool"
        }
      ],
      "name": "setHarvestSpan",
      "outputs": [],
      "stateMutability": "nonpayable",
      "type": "function"
    },
    {
      "inputs": [
        {
          "internalType": "address",
          "name": "from",
          "type": "address"
        },
        {
          "internalType": "uint256",
          "name": "amount",
          "type": "uint256"
        }
      ],
      "name": "farming",
      "outputs": [],
      "stateMutability": "nonpayable",
      "type": "function"
    },
    {
      "inputs": [
        {
          "internalType": "uint256",
          "name": "amount",
          "type": "uint256"
        }
      ],
      "name": "farming",
      "outputs": [],
      "stateMutability": "nonpayable",
      "type": "function"
    },
    {
      "inputs": [
        {
          "internalType": "address",
          "name": "to",
          "type": "address"
        },
        {
          "internalType": "uint256",
          "name": "amount",
          "type": "uint256"
        }
      ],
      "name": "unfarming",
      "outputs": [
        {
          "internalType": "uint256",
          "name": "",
          "type": "uint256"
        }
      ],
      "stateMutability": "nonpayable",
      "type": "function"
    },
    {
      "inputs": [
        {
          "internalType": "uint256",
          "name": "amount",
          "type": "uint256"
        }
      ],
      "name": "unfarming",
      "outputs": [
        {
          "internalType": "uint256",
          "name": "",
          "type": "uint256"
        }
      ],
      "stateMutability": "nonpayable",
      "type": "function"
    },
    {
      "inputs": [],
      "name": "unfarming",
      "outputs": [
        {
          "internalType": "uint256",
          "name": "amount",
          "type": "uint256"
        }
      ],
      "stateMutability": "nonpayable",
      "type": "function"
    },
    {
      "inputs": [
        {
          "internalType": "address",
          "name": "to",
          "type": "address"
        }
      ],
      "name": "harvest",
      "outputs": [
        {
          "internalType": "uint256[]",
          "name": "amounts",
          "type": "uint256[]"
        }
      ],
      "stateMutability": "nonpayable",
      "type": "function"
    },
    {
      "inputs": [],
      "name": "harvest",
      "outputs": [
        {
          "internalType": "uint256[]",
          "name": "amounts",
          "type": "uint256[]"
        }
      ],
      "stateMutability": "nonpayable",
      "type": "function"
    },
    {
      "inputs": [
        {
          "internalType": "address",
          "name": "farmer",
          "type": "address"
        }
      ],
      "name": "harvestCapacity",
      "outputs": [
        {
          "internalType": "uint256[]",
          "name": "amounts",
          "type": "uint256[]"
        }
      ],
      "stateMutability": "view",
      "type": "function"
    }
  ],
  "bytecode": "0x608060405234801561001057600080fd5b50612bf5806100206000396000f3fe608060405234801561001057600080fd5b50600436106101f7576000357c010000000000000000000000000000000000000000000000000000000090048063653e5e8d11610121578063a605e4e1116100bf578063c4d66de81161008e578063c4d66de81461095d578063ddf2be3f146109a1578063efbe1c1c146109e3578063fda0352714610a01576101f7565b8063a605e4e1146107e5578063b21544f31461083d578063b6aa515b14610895578063c0c53b8b146108d9576101f7565b806381c0c263116100fb57806381c0c2631461071f57806384d2ca1d146107295780638ec872e31461076b5780638f0af328146107b7576101f7565b8063653e5e8d146106315780636dd5b69d146106935780636f307dc3146106d5576101f7565b80632585581f116101995780634641257d116101685780634641257d1461049d5780634e76fe4d146104fc5780634eb8b5ec1461053657806352665f47146105cf576101f7565b80632585581f146103f957806327fa4cb91461041757806336e9332d1461043557806343d7f86f1461047f576101f7565b80630e5c011e116101d55780630e5c011e146102ec57806315fe96dc14610385578063165defa4146103bd57806323a58292146103db576101f7565b8063037859af146101fc57806309bcd927146102545780630c340a24146102a2575b600080fd5b61023e6004803603602081101561021257600080fd5b81019080803573ffffffffffffffffffffffffffffffffffffffff169060200190929190505050610a1f565b6040518082815260200191505060405180910390f35b6102a06004803603604081101561026a57600080fd5b81019080803573ffffffffffffffffffffffffffffffffffffffff16906020019092919080359060200190929190505050610a37565b005b6102aa610b63565b604051808273ffffffffffffffffffffffffffffffffffffffff1673ffffffffffffffffffffffffffffffffffffffff16815260200191505060405180910390f35b61032e6004803603602081101561030257600080fd5b81019080803573ffffffffffffffffffffffffffffffffffffffff169060200190929190505050610b89565b6040518080602001828103825283818151815260200191508051906020019060200280838360005b83811015610371578082015181840152602081019050610356565b505050509050019250505060405180910390f35b6103bb6004803603604081101561039b57600080fd5b810190808035906020019092919080359060200190929190505050610e7f565b005b6103c5610ee7565b6040518082815260200191505060405180910390f35b6103e3610eed565b6040518082815260200191505060405180910390f35b610401610ef3565b6040518082815260200191505060405180910390f35b61041f610ef9565b6040518082815260200191505060405180910390f35b61043d610eff565b604051808273ffffffffffffffffffffffffffffffffffffffff1673ffffffffffffffffffffffffffffffffffffffff16815260200191505060405180910390f35b610487610f25565b6040518082815260200191505060405180910390f35b6104a5610f2b565b6040518080602001828103825283818151815260200191508051906020019060200280838360005b838110156104e85780820151818401526020810190506104cd565b505050509050019250505060405180910390f35b6105346004803603604081101561051257600080fd5b8101908080359060200190929190803515159060200190929190505050610f3b565b005b6105786004803603602081101561054c57600080fd5b81019080803573ffffffffffffffffffffffffffffffffffffffff169060200190929190505050610fc4565b6040518080602001828103825283818151815260200191508051906020019060200280838360005b838110156105bb5780820151818401526020810190506105a0565b505050509050019250505060405180910390f35b61061b600480360360408110156105e557600080fd5b8101908080359060200190929190803573ffffffffffffffffffffffffffffffffffffffff169060200190929190505050611082565b6040518082815260200191505060405180910390f35b61067d6004803603604081101561064757600080fd5b81019080803573ffffffffffffffffffffffffffffffffffffffff169060200190929190803590602001909291905050506110bf565b6040518082815260200191505060405180910390f35b6106bf600480360360208110156106a957600080fd5b81019080803590602001909291905050506111f3565b6040518082815260200191505060405180910390f35b6106dd611210565b604051808273ffffffffffffffffffffffffffffffffffffffff1673ffffffffffffffffffffffffffffffffffffffff16815260200191505060405180910390f35b610727611236565b005b6107556004803603602081101561073f57600080fd5b8101908080359060200190929190505050611350565b6040518082815260200191505060405180910390f35b6107a16004803603604081101561078157600080fd5b810190808035906020019092919080359060200190929190505050611363565b6040518082815260200191505060405180910390f35b6107e3600480360360208110156107cd57600080fd5b810190808035906020019092919050505061138a565b005b610827600480360360208110156107fb57600080fd5b81019080803573ffffffffffffffffffffffffffffffffffffffff169060200190929190505050611397565b6040518082815260200191505060405180910390f35b6108936004803603606081101561085357600080fd5b8101908080359060200190929190803573ffffffffffffffffffffffffffffffffffffffff169060200190929190803590602001909291905050506113af565b005b6108d7600480360360208110156108ab57600080fd5b81019080803573ffffffffffffffffffffffffffffffffffffffff169060200190929190505050611437565b005b61095b600480360360608110156108ef57600080fd5b81019080803573ffffffffffffffffffffffffffffffffffffffff169060200190929190803573ffffffffffffffffffffffffffffffffffffffff169060200190929190803573ffffffffffffffffffffffffffffffffffffffff16906020019092919050505061149d565b005b61099f6004803603602081101561097357600080fd5b81019080803573ffffffffffffffffffffffffffffffffffffffff1690602001909291905050506117aa565b005b6109e1600480360360608110156109b757600080fd5b81019080803590602001909291908035906020019092919080359060200190929190505050611968565b005b6109eb6119da565b6040518082815260200191505060405180910390f35b610a096119e0565b6040518082815260200191505060405180910390f35b60076020528060005260406000206000915090505481565b610a3f610f2b565b50610a4a8282611a30565b610a9c81600760003373ffffffffffffffffffffffffffffffffffffffff1673ffffffffffffffffffffffffffffffffffffffff16815260200190815260200160002054611a8390919063ffffffff16565b600760003373ffffffffffffffffffffffffffffffffffffffff1673ffffffffffffffffffffffffffffffffffffffff16815260200190815260200160002081905550610af481600654611a8390919063ffffffff16565b6006819055508173ffffffffffffffffffffffffffffffffffffffff163373ffffffffffffffffffffffffffffffffffffffff167f97a52e27df22fb67b21f6c557f67bc27697698be350a025841fa855633926155836040518082815260200191505060405180910390a35050565b600060029054906101000a900473ffffffffffffffffffffffffffffffffffffffff1681565b6060600167ffffffffffffffff81118015610ba357600080fd5b50604051908082528060200260200182016040528015610bd25781602001602082028036833780820191505090505b509050600081600081518110610be457fe5b60200260200101818152505060006004541480610c0357506000600654145b15610c1057809050610e7a565b6000610c1a611b0b565b9050610c693382600954600860003373ffffffffffffffffffffffffffffffffffffffff1673ffffffffffffffffffffffffffffffffffffffff16815260200190815260200160002054611dec565b82600081518110610c7657fe5b60200260200101818152505081600081518110610c8f57fe5b60200260200101518114610cdf57610cd882600081518110610cad57fe5b6020026020010151610cca83600a54611a8390919063ffffffff16565b611edd90919063ffffffff16565b600a819055505b6000811115610d3257610d2b610d1a600654610d0c670de0b6b3a764000085611f6090919063ffffffff16565b611fe690919063ffffffff16565b600954611a8390919063ffffffff16565b6009819055505b600954600860003373ffffffffffffffffffffffffffffffffffffffff1673ffffffffffffffffffffffffffffffffffffffff1681526020019081526020016000205414610dc157600954600860003373ffffffffffffffffffffffffffffffffffffffff1673ffffffffffffffffffffffffffffffffffffffff168152602001908152602001600020819055505b42600b81905550610dd2838361206f565b8273ffffffffffffffffffffffffffffffffffffffff163373ffffffffffffffffffffffffffffffffffffffff167f3d1a2e43c97df7d6bef3b489b849329352d0aee9d65d79ff7eaf7f6e8e1a820b846040518080602001828103825283818151815260200191508051906020019060200280838360005b83811015610e65578082015181840152602081019050610e4a565b505050509050019250505060405180910390a3505b919050565b600060029054906101000a900473ffffffffffffffffffffffffffffffffffffffff1673ffffffffffffffffffffffffffffffffffffffff163373ffffffffffffffffffffffffffffffffffffffff1614610ed957600080fd5b610ee382826123f0565b5050565b60065481565b600b5481565b60045481565b60095481565b600260009054906101000a900473ffffffffffffffffffffffffffffffffffffffff1681565b600a5481565b6060610f3633610b89565b905090565b600060029054906101000a900473ffffffffffffffffffffffffffffffffffffffff1673ffffffffffffffffffffffffffffffffffffffff163373ffffffffffffffffffffffffffffffffffffffff1614610f9557600080fd5b816004819055508015610fb057814201600581905550610fb9565b60006005819055505b42600b819055505050565b6060600167ffffffffffffffff81118015610fde57600080fd5b5060405190808252806020026020018201604052801561100d5781602001602082028036833780820191505090505b5090506110648261101c611b0b565b600954600860008773ffffffffffffffffffffffffffffffffffffffff1673ffffffffffffffffffffffffffffffffffffffff16815260200190815260200160002054611dec565b8160008151811061107157fe5b602002602001018181525050919050565b6000600160008373ffffffffffffffffffffffffffffffffffffffff16856001900418600102815260200190815260200160002054905092915050565b60006110c9610f2b565b506110df82600654611edd90919063ffffffff16565b60068190555061113782600760003373ffffffffffffffffffffffffffffffffffffffff1673ffffffffffffffffffffffffffffffffffffffff16815260200190815260200160002054611edd90919063ffffffff16565b600760003373ffffffffffffffffffffffffffffffffffffffff1673ffffffffffffffffffffffffffffffffffffffff168152602001908152602001600020819055506111848383612427565b508273ffffffffffffffffffffffffffffffffffffffff163373ffffffffffffffffffffffffffffffffffffffff167f9fbb5da627ec6b9a1a3868859509e665c794b81658037649f2b42d6e3e3f1af8846040518082815260200191505060405180910390a381905092915050565b600060016000838152602001908152602001600020549050919050565b600360009054906101000a900473ffffffffffffffffffffffffffffffffffffffff1681565b600060029054906101000a900473ffffffffffffffffffffffffffffffffffffffff1673ffffffffffffffffffffffffffffffffffffffff163373ffffffffffffffffffffffffffffffffffffffff161461129057600080fd5b600073ffffffffffffffffffffffffffffffffffffffff16600060029054906101000a900473ffffffffffffffffffffffffffffffffffffffff1673ffffffffffffffffffffffffffffffffffffffff167fc7c0c772add429241571afb3805861fb3cfa2af374534088b76cdb4325a87e9a60405160405180910390a360008060026101000a81548173ffffffffffffffffffffffffffffffffffffffff021916908373ffffffffffffffffffffffffffffffffffffffff160217905550565b600061135c33836110bf565b9050919050565b60006001600083856001900418600102815260200190815260200160002054905092915050565b6113943382610a37565b50565b60086020528060005260406000206000915090505481565b600060029054906101000a900473ffffffffffffffffffffffffffffffffffffffff1673ffffffffffffffffffffffffffffffffffffffff163373ffffffffffffffffffffffffffffffffffffffff161461140957600080fd5b6114328273ffffffffffffffffffffffffffffffffffffffff16846001900418600102826123f0565b505050565b600060029054906101000a900473ffffffffffffffffffffffffffffffffffffffff1673ffffffffffffffffffffffffffffffffffffffff163373ffffffffffffffffffffffffffffffffffffffff161461149157600080fd5b61149a8161247f565b50565b600060019054906101000a900460ff16806114bc57506114bb612579565b5b806114d357506000809054906101000a900460ff16155b611528576040517f08c379a000000000000000000000000000000000000000000000000000000000815260040180806020018281038252602e815260200180612b47602e913960400191505060405180910390fd5b60008060019054906101000a900460ff161590508015611578576001600060016101000a81548160ff02191690831515021790555060016000806101000a81548160ff0219169083151502179055505b611581846117aa565b82600260006101000a81548173ffffffffffffffffffffffffffffffffffffffff021916908373ffffffffffffffffffffffffffffffffffffffff16021790555081600360006101000a81548173ffffffffffffffffffffffffffffffffffffffff021916908373ffffffffffffffffffffffffffffffffffffffff160217905550600260009054906101000a900473ffffffffffffffffffffffffffffffffffffffff1673ffffffffffffffffffffffffffffffffffffffff16633fb239d06040518163ffffffff167c010000000000000000000000000000000000000000000000000000000002815260040160206040518083038186803b15801561168757600080fd5b505afa15801561169b573d6000803e3d6000fd5b505050506040513d60208110156116b157600080fd5b810190808051906020019092919050505050600360009054906101000a900473ffffffffffffffffffffffffffffffffffffffff1673ffffffffffffffffffffffffffffffffffffffff166318160ddd6040518163ffffffff167c010000000000000000000000000000000000000000000000000000000002815260040160206040518083038186803b15801561174757600080fd5b505afa15801561175b573d6000803e3d6000fd5b505050506040513d602081101561177157600080fd5b81019080805190602001909291905050505080156117a45760008060016101000a81548160ff0219169083151502179055505b50505050565b600060019054906101000a900460ff16806117c957506117c8612579565b5b806117e057506000809054906101000a900460ff16155b611835576040517f08c379a000000000000000000000000000000000000000000000000000000000815260040180806020018281038252602e815260200180612b47602e913960400191505060405180910390fd5b60008060019054906101000a900460ff161590508015611885576001600060016101000a81548160ff02191690831515021790555060016000806101000a81548160ff0219169083151502179055505b81600060026101000a81548173ffffffffffffffffffffffffffffffffffffffff021916908373ffffffffffffffffffffffffffffffffffffffff160217905550600060029054906101000a900473ffffffffffffffffffffffffffffffffffffffff1673ffffffffffffffffffffffffffffffffffffffff16600073ffffffffffffffffffffffffffffffffffffffff167fc7c0c772add429241571afb3805861fb3cfa2af374534088b76cdb4325a87e9a60405160405180910390a380156119645760008060016101000a81548160ff0219169083151502179055505b5050565b600060029054906101000a900473ffffffffffffffffffffffffffffffffffffffff1673ffffffffffffffffffffffffffffffffffffffff163373ffffffffffffffffffffffffffffffffffffffff16146119c257600080fd5b6119d582846001900418600102826123f0565b505050565b60055481565b6000611a2b33600760003373ffffffffffffffffffffffffffffffffffffffff1673ffffffffffffffffffffffffffffffffffffffff168152602001908152602001600020546110bf565b905090565b611a7f823083600360009054906101000a900473ffffffffffffffffffffffffffffffffffffffff1673ffffffffffffffffffffffffffffffffffffffff1661258a909392919063ffffffff16565b5050565b600080828401905083811015611b01576040517f08c379a000000000000000000000000000000000000000000000000000000000815260040180806020018281038252601b8152602001807f536166654d6174683a206164646974696f6e206f766572666c6f77000000000081525060200191505060405180910390fd5b8091505092915050565b6000611d09600a54600260009054906101000a900473ffffffffffffffffffffffffffffffffffffffff1673ffffffffffffffffffffffffffffffffffffffff16633fb239d06040518163ffffffff167c010000000000000000000000000000000000000000000000000000000002815260040160206040518083038186803b158015611b9757600080fd5b505afa158015611bab573d6000803e3d6000fd5b505050506040513d6020811015611bc157600080fd5b810190808051906020019092919050505073ffffffffffffffffffffffffffffffffffffffff1663dd62ed3e600260009054906101000a900473ffffffffffffffffffffffffffffffffffffffff16306040518363ffffffff167c0100000000000000000000000000000000000000000000000000000000028152600401808373ffffffffffffffffffffffffffffffffffffffff1673ffffffffffffffffffffffffffffffffffffffff1681526020018273ffffffffffffffffffffffffffffffffffffffff1673ffffffffffffffffffffffffffffffffffffffff1681526020019250505060206040518083038186803b158015611cc057600080fd5b505afa158015611cd4573d6000803e3d6000fd5b505050506040513d6020811015611cea57600080fd5b8101908080519060200190929190505050611edd90919063ffffffff16565b905060006005541415611d7757600454611d2e600b5442611edd90919063ffffffff16565b1015611d7257611d6f600454611d61611d52600b5442611edd90919063ffffffff16565b84611f6090919063ffffffff16565b611fe690919063ffffffff16565b90505b611de9565b600554421015611dd757611dd0611d9b600b54600554611edd90919063ffffffff16565b611dc2611db3600b5442611edd90919063ffffffff16565b84611f6090919063ffffffff16565b611fe690919063ffffffff16565b9050611de8565b600554600b5410611de757600090505b5b5b90565b6000806004541480611e0057506000600654145b15611e0e5760009050611ed5565b611e218284611edd90919063ffffffff16565b9050611e64611e55600654611e47670de0b6b3a764000088611f6090919063ffffffff16565b611fe690919063ffffffff16565b82611a8390919063ffffffff16565b9050611ed2670de0b6b3a7640000611ec4600760008973ffffffffffffffffffffffffffffffffffffffff1673ffffffffffffffffffffffffffffffffffffffff1681526020019081526020016000205484611f6090919063ffffffff16565b611fe690919063ffffffff16565b90505b949350505050565b600082821115611f55576040517f08c379a000000000000000000000000000000000000000000000000000000000815260040180806020018281038252601e8152602001807f536166654d6174683a207375627472616374696f6e206f766572666c6f77000081525060200191505060405180910390fd5b818303905092915050565b600080831415611f735760009050611fe0565b6000828402905082848281611f8457fe5b0414611fdb576040517f08c379a0000000000000000000000000000000000000000000000000000000008152600401808060200182810382526021815260200180612b756021913960400191505060405180910390fd5b809150505b92915050565b600080821161205d576040517f08c379a000000000000000000000000000000000000000000000000000000000815260040180806020018281038252601a8152602001807f536166654d6174683a206469766973696f6e206279207a65726f00000000000081525060200191505060405180910390fd5b81838161206657fe5b04905092915050565b60008151118015612094575060008160008151811061208a57fe5b6020026020010151115b156123ec576121ba600260009054906101000a900473ffffffffffffffffffffffffffffffffffffffff1683836000815181106120cd57fe5b6020026020010151600260009054906101000a900473ffffffffffffffffffffffffffffffffffffffff1673ffffffffffffffffffffffffffffffffffffffff16633fb239d06040518163ffffffff167c010000000000000000000000000000000000000000000000000000000002815260040160206040518083038186803b15801561215957600080fd5b505afa15801561216d573d6000803e3d6000fd5b505050506040513d602081101561218357600080fd5b810190808051906020019092919050505073ffffffffffffffffffffffffffffffffffffffff1661258a909392919063ffffffff16565b6000600160007f7465616d416464720000000000000000000000000000000000000000000000008152602001908152602001600020541415801561223257506000600160007f7465616d526174696f000000000000000000000000000000000000000000000081526020019081526020016000205414155b156123eb576123ea600260009054906101000a900473ffffffffffffffffffffffffffffffffffffffff16600160007f7465616d41646472000000000000000000000000000000000000000000000000815260200190815260200160002054612305670de0b6b3a76400006122f7600160007f7465616d526174696f0000000000000000000000000000000000000000000000815260200190815260200160002054876000815181106122e157fe5b6020026020010151611f6090919063ffffffff16565b611fe690919063ffffffff16565b600260009054906101000a900473ffffffffffffffffffffffffffffffffffffffff1673ffffffffffffffffffffffffffffffffffffffff16633fb239d06040518163ffffffff167c010000000000000000000000000000000000000000000000000000000002815260040160206040518083038186803b15801561238957600080fd5b505afa15801561239d573d6000803e3d6000fd5b505050506040513d60208110156123b357600080fd5b810190808051906020019092919050505073ffffffffffffffffffffffffffffffffffffffff1661258a909392919063ffffffff16565b5b5b5050565b80600160008481526020019081526020016000205414612423578060016000848152602001908152602001600020819055505b5050565b60006124768383600360009054906101000a900473ffffffffffffffffffffffffffffffffffffffff1673ffffffffffffffffffffffffffffffffffffffff166126939092919063ffffffff16565b81905092915050565b600073ffffffffffffffffffffffffffffffffffffffff168173ffffffffffffffffffffffffffffffffffffffff1614156124b957600080fd5b8073ffffffffffffffffffffffffffffffffffffffff16600060029054906101000a900473ffffffffffffffffffffffffffffffffffffffff1673ffffffffffffffffffffffffffffffffffffffff167fc7c0c772add429241571afb3805861fb3cfa2af374534088b76cdb4325a87e9a60405160405180910390a380600060026101000a81548173ffffffffffffffffffffffffffffffffffffffff021916908373ffffffffffffffffffffffffffffffffffffffff16021790555050565b600061258430612767565b15905090565b61268d846323b872dd7c010000000000000000000000000000000000000000000000000000000002858585604051602401808473ffffffffffffffffffffffffffffffffffffffff1673ffffffffffffffffffffffffffffffffffffffff1681526020018373ffffffffffffffffffffffffffffffffffffffff1673ffffffffffffffffffffffffffffffffffffffff1681526020018281526020019350505050604051602081830303815290604052907bffffffffffffffffffffffffffffffffffffffffffffffffffffffff19166020820180517bffffffffffffffffffffffffffffffffffffffffffffffffffffffff838183161783525050505061277a565b50505050565b6127628363a9059cbb7c0100000000000000000000000000000000000000000000000000000000028484604051602401808373ffffffffffffffffffffffffffffffffffffffff1673ffffffffffffffffffffffffffffffffffffffff16815260200182815260200192505050604051602081830303815290604052907bffffffffffffffffffffffffffffffffffffffffffffffffffffffff19166020820180517bffffffffffffffffffffffffffffffffffffffffffffffffffffffff838183161783525050505061277a565b505050565b600080823b905060008111915050919050565b60606127dc826040518060400160405280602081526020017f5361666545524332303a206c6f772d6c6576656c2063616c6c206661696c65648152508573ffffffffffffffffffffffffffffffffffffffff166128699092919063ffffffff16565b9050600081511115612864578080602001905160208110156127fd57600080fd5b8101908080519060200190929190505050612863576040517f08c379a000000000000000000000000000000000000000000000000000000000815260040180806020018281038252602a815260200180612b96602a913960400191505060405180910390fd5b5b505050565b60606128788484600085612881565b90509392505050565b6060823073ffffffffffffffffffffffffffffffffffffffff163110156128f3576040517f08c379a0000000000000000000000000000000000000000000000000000000008152600401808060200182810382526026815260200180612b216026913960400191505060405180910390fd5b6128fc85612a41565b61296e576040517f08c379a000000000000000000000000000000000000000000000000000000000815260040180806020018281038252601d8152602001807f416464726573733a2063616c6c20746f206e6f6e2d636f6e747261637400000081525060200191505060405180910390fd5b600060608673ffffffffffffffffffffffffffffffffffffffff1685876040518082805190602001908083835b602083106129be578051825260208201915060208101905060208303925061299b565b6001836020036101000a03801982511681845116808217855250505050505090500191505060006040518083038185875af1925050503d8060008114612a20576040519150601f19603f3d011682016040523d82523d6000602084013e612a25565b606091505b5091509150612a35828286612a54565b92505050949350505050565b600080823b905060008111915050919050565b60608315612a6457829050612b19565b600083511115612a775782518084602001fd5b816040517f08c379a00000000000000000000000000000000000000000000000000000000081526004018080602001828103825283818151815260200191508051906020019080838360005b83811015612ade578082015181840152602081019050612ac3565b50505050905090810190601f168015612b0b5780820380516001836020036101000a031916815260200191505b509250505060405180910390fd5b939250505056fe416464726573733a20696e73756666696369656e742062616c616e636520666f722063616c6c496e697469616c697a61626c653a20636f6e747261637420697320616c726561647920696e697469616c697a6564536166654d6174683a206d756c7469706c69636174696f6e206f766572666c6f775361666545524332303a204552433230206f7065726174696f6e20646964206e6f742073756363656564a2646970667358221220f53d5e96910f5ca9ddf6f31cd723bffb49bbbc8949d557437c3cf31ef49bfe5d64736f6c63430006080033",
  "immutableReferences": {},
  "source": "// SPDX-License-Identifier: MIT\n\npragma solidity ^0.6.0;\n//pragma experimental ABIEncoderV2;\nimport \"./Governable.sol\";\nimport \"./standard/token/ERC20/SafeERC20.sol\";\nimport \"./standard/math/SafeMathUpgradeable.sol\";\n\ninterface IFarm {\n    function crop() external view returns (address);\n}\n\ninterface ISPool {\n    event Farming(address indexed farmer, address indexed from, uint amount);\n    event Unfarming(address indexed farmer, address indexed to, uint amount);\n    event Harvest(address indexed farmer, address indexed to, uint[] amounts);\n\n    function setHarvestSpan(uint _span, bool isLinear) external;\n\n    function farming(uint amount) external;\n\n    function farming(address from, uint amount) external;\n\n    function unfarming() external returns (uint amount);\n\n    function unfarming(uint amount) external returns (uint);\n\n    function unfarming(address to, uint amount) external returns (uint);\n\n    function harvest() external returns (uint[] memory amounts);\n\n    function harvest(address to) external returns (uint[] memory amounts);\n\n    function harvestCapacity(address farmer) external view returns (uint[] memory amounts);\n}\n\ncontract SExactPool is ISPool, Configurable {\n    using SafeMathUpgradeable  for uint;\n    using SafeERC20 for IERC20;\n\n    address public farm;\n    address public underlying;\n    uint public span;\n    uint public end;\n    uint public totalStaking;\n    mapping(address => uint) public stakingOf;\n    mapping(address => uint) public sumRewardPerOf;\n    uint public sumRewardPer;\n    uint public bufReward;\n    uint public lasttime;\n\n    function initialize(address governor, address _farm, address _underlying) public initializer {\n        super.initialize(governor);\n\n        farm = _farm;\n        underlying = _underlying;\n\n        IFarm(farm).crop();\n        // just check\n        IERC20(underlying).totalSupply();\n        // just check\n    }\n\n    function setHarvestSpan(uint _span, bool isLinear) virtual override external governance {\n        span = _span;\n        if (isLinear)\n            end = now + _span;\n        else\n            end = 0;\n        lasttime = now;\n    }\n\n    function farming(uint amount) virtual override external {\n        farming(msg.sender, amount);\n    }\n\n    function farming(address from, uint amount) virtual override public {\n        harvest();\n\n        _farming(from, amount);\n\n        stakingOf[msg.sender] = stakingOf[msg.sender].add(amount);\n        totalStaking = totalStaking.add(amount);\n\n        emit Farming(msg.sender, from, amount);\n    }\n\n    function _farming(address from, uint amount) virtual internal {\n        IERC20(underlying).safeTransferFrom(from, address(this), amount);\n    }\n\n    function unfarming() virtual override external returns (uint amount){\n        return unfarming(msg.sender, stakingOf[msg.sender]);\n    }\n\n    function unfarming(uint amount) virtual override external returns (uint){\n        return unfarming(msg.sender, amount);\n    }\n\n    function unfarming(address to, uint amount) virtual override public returns (uint){\n        harvest();\n\n        totalStaking = totalStaking.sub(amount);\n        stakingOf[msg.sender] = stakingOf[msg.sender].sub(amount);\n\n        _unfarming(to, amount);\n\n        emit Unfarming(msg.sender, to, amount);\n        return amount;\n    }\n\n    function _unfarming(address to, uint amount) virtual internal returns (uint){\n        IERC20(underlying).safeTransfer(to, amount);\n        return amount;\n    }\n\n    function harvest() virtual override public returns (uint[] memory amounts) {\n        return harvest(msg.sender);\n    }\n\n    function harvest(address to) virtual override public returns (uint[] memory amounts) {\n        amounts = new uint[](1);\n        amounts[0] = 0;\n        if (span == 0 || totalStaking == 0)\n            return amounts;\n\n        uint delta = _harvestDelta();\n        amounts[0] = _harvestCapacity(msg.sender, delta, sumRewardPer, sumRewardPerOf[msg.sender]);\n\n        if (delta != amounts[0])\n            bufReward = bufReward.add(delta).sub(amounts[0]);\n        if (delta > 0)\n            sumRewardPer = sumRewardPer.add(delta.mul(1 ether).div(totalStaking));\n        if (sumRewardPerOf[msg.sender] != sumRewardPer)\n            sumRewardPerOf[msg.sender] = sumRewardPer;\n        lasttime = now;\n\n        _harvest(to, amounts);\n\n        emit Harvest(msg.sender, to, amounts);\n    }\n\n    function _harvest(address to, uint[] memory amounts) virtual internal {\n        if (amounts.length > 0 && amounts[0] > 0) {\n            IERC20(IFarm(farm).crop()).safeTransferFrom(farm, to, amounts[0]);\n            if (config['teamAddr'] != 0 && config['teamRatio'] != 0)\n                IERC20(IFarm(farm).crop()).safeTransferFrom(farm, address(config['teamAddr']), amounts[0].mul(config['teamRatio']).div(1 ether));\n        }\n    }\n\n    function harvestCapacity(address farmer) virtual override public view returns (uint[] memory amounts) {\n        amounts = new uint[](1);\n        amounts[0] = _harvestCapacity(farmer, _harvestDelta(), sumRewardPer, sumRewardPerOf[farmer]);\n    }\n\n    function _harvestCapacity(address farmer, uint delta, uint sumPer, uint lastSumPer) virtual internal view returns (uint amount) {\n        if (span == 0 || totalStaking == 0)\n            return 0;\n\n        amount = sumPer.sub(lastSumPer);\n        amount = amount.add(delta.mul(1 ether).div(totalStaking));\n        amount = amount.mul(stakingOf[farmer]).div(1 ether);\n    }\n\n    function _harvestDelta() virtual internal view returns (uint amount) {\n        amount = IERC20(IFarm(farm).crop()).allowance(farm, address(this)).sub(bufReward);\n\n        if (end == 0) {// isNonLinear, endless\n            if (now.sub(lasttime) < span)\n                amount = amount.mul(now.sub(lasttime)).div(span);\n        } else if (now < end)\n            amount = amount.mul(now.sub(lasttime)).div(end.sub(lasttime));\n        else if (lasttime >= end)\n            amount = 0;\n    }\n}\n\n\ncontract Farm is IFarm, Governable {\n    using SafeERC20 for IERC20;\n\n    address _crop;\n\n    function crop() external override view returns (address) {\n        return _crop;\n    }\n\n    function initialize(address governor, address crop_) public initializer {\n        super.initialize(governor);\n        _crop = crop_;\n    }\n\n    function approvePool(address pool, uint amount) public governance {\n        IERC20(_crop).safeApprove(pool, amount);\n    }\n\n    function approveToken(address token, address pool, uint amount) public governance {\n        IERC20(token).safeApprove(pool, amount);\n    }\n\n}\n",
  "sourcePath": "/Users/renge/Desktop/mengbao/pact/pact/contracts/Farm.sol",
  "compiler": {
    "name": "solc",
    "version": "0.6.8+commit.0bbfe453.Linux.g++"
  },
  "schemaVersion": "3.3.4",
  "updatedAt": "2021-04-01T15:40:31.498Z",
  "devdoc": {
    "methods": {
      "initialize(address)": {
        "details": "Contract initializer. called once by the factory at time of deployment"
      },
      "renounceGovernorship()": {
        "details": "Allows the current governor to relinquish control of the contract."
      },
      "transferGovernorship(address)": {
        "details": "Allows the current governor to transfer control of the contract to a newGovernor.",
        "params": {
          "newGovernor": "The address to transfer governorship to."
        }
      }
    }
  },
  "userdoc": {
    "methods": {
      "renounceGovernorship()": {
        "notice": "Renouncing to governorship will leave the contract without an governor. It will not be possible to call the functions with the `governance` modifier anymore."
      }
    }
  }
}